S00D0000626C696E6B2E7372656307
S11300000C9434000C943E000C943E000C943E007E
S11300100C943E000C943E000C943E000C943E0064
S11300200C943E000C943E000C943E000C943E0054
S11300300C943E000C943E000C943E000C943E0044
S11300400C943E000C943E000C943E000C943E0034
S11300500C943E000C943E000C943E000C943E0024
S11300600C943E000C943E0011241FBECFEFD8E048
S1130070DEBFCDBF0E9470000C94A7000C9400005A
S113008087E880937A00089581E480937C0085E377
S11300908A95F1F70000EAE7F0E0808180648083CC
S11300A080917A0086FDFCCF809178009091790050
S11300B0089583E08093C50080E48093C40086E0C3
S11300C08093C20088E18093C10080E28093C000E5
S11300D008959091C00095FFFCCF8093C6000895C9
S11300E00E9459000E94400084B1806284B90E9439
S11300F0440028E7AC01249FC001259F900D1124E2
S11301006FEF73E00E9493008B01C0E0D0E004C065
S11301108AE20E9469002196C017D107C8F38AE0D9
S11301200E946900E4CFAA1BBB1B51E107C0AA1FB0
S1130130BB1FA617B70710F0A61BB70B881F991F84
S11301405A95A9F780959095BC01CD010895F8942E
S1050150FFCFDB
S9030000FC
