S01B0000636F6E766572736F725F616E616C6F6769636F2E737265631C
S11300000C9434000C9449000C9449000C9449005D
S11300100C9449000C9449000C9449000C94490038
S11300200C9449000C9449000C9449000C94490028
S11300300C9449000C9449000C9449000C94490018
S11300400C9449000C9449000C9449000C94490008
S11300500C9449000C9449000C9449000C944900F8
S11300600C9449000C94490011241FBECFEFD8E032
S1130070DEBFCDBF11E0A0E0B1E0EEEAF1E002C0E6
S113008005900D92A837B107D9F70E9481000C940E
S1130090D5000C9400001092C50082E28093C40045
S11300A096E09093C20098E19093C1008093C000C1
S11300B0089587E880937A0008959091C00095FF91
S11300C0FCCF8093C60008958091C0008823E4F794
S11300D08091C60008950F931F93CF93DF938C01F3
S11300E0C0E0D0E003C00E945D002196F801EC0F4F
S11300F0FD1F80818111F7CFDF91CF911F910F9167
S11301000895CF93DF93CDB7DEB7C857D1090FB6A3
S1130110F894DEBF0FBECDBF0E944B000E94590071
S113012086E1E0E0F1E0DE01119601900D928A95FE
S1130130E1F7FE01779682E1DF011D928A95E9F7E6
S11301408EE1E8E2F1E0DE01999601900D928A9544
S1130150E1F7FE01E95BFF4F8AE0DF011D928A951A
S1130160E9F782E2E0E5F1E0DE01AF5ABF4F01902A
S11301700D928A95E1F7E1E5F0E0EC0FFD1FB296F0
S113018086E0DF011D928A95E9F7CE0101960E946F
S11301906B00CE0189960E946B00CE018F5A9F4F4F
S11101A00E946B000E946400F0CFF894FFCF21
S11301AE53656C6563696F6E6520756D61206F7044
S11301BE63616F3A0A0000000000000000000000B6
S11301CE000000000000000031202D204D65646900
S11301DE722074656D706572617475726120284C3D
S11301EE4D3335290A000000000000000000000015
S11301FE32202D204D656469722074656E73E36F31
S113020E2028506F74656E6369F46D6574726F297E
S10B021E0A00000000000000CA
S9030000FC
