:100000000C9434000C9449000C9449000C94490061
:100010000C9449000C9449000C9449000C9449003C
:100020000C9449000C9449000C9449000C9449002C
:100030000C9449000C9449000C9449000C9449001C
:100040000C9449000C9449000C9449000C9449000C
:100050000C9449000C9449000C9449000C944900FC
:100060000C9449000C94490011241FBECFEFD8E036
:10007000DEBFCDBF11E0A0E0B1E0E0E3F2E002C0FE
:1000800005900D92AA39B107D9F70E94F2000C949D
:1000900016010C9400001092C50082E28093C40007
:1000A00096E09093C20098E19093C1008093C000C5
:1000B000089587E880937A0008959091C00095FF95
:1000C000FCCF8093C60008958091C0008823E4F798
:1000D0008091C60008950F931F93CF93DF938C01F7
:1000E000C0E0D0E003C00E945D002196F801EC0F53
:1000F000FD1F80818111F7CFDF91CF911F910F916B
:100100000895CF93DF93CDB7DEB7C857D1090FB6A7
:10011000F894DEBF0FBECDBF86E1E0E0F1E0DE0186
:10012000119601900D928A95E1F7FE01779682E192
:10013000DF011D928A95E9F78EE1E8E2F1E0DE0148
:10014000999601900D928A95E1F7FE01E95BFF4FC8
:100150008AE0DF011D928A95E9F782E2E0E5F1E0AD
:10016000DE01AF5ABF4F01900D928A95E1F7E1E5AC
:10017000F0E0EC0FFD1FB29686E0DF011D928A953C
:10018000E9F7CE0101960E946B00CE0189960E948C
:100190006B00CE018F5A9F4F0E946B00C858DF4FF3
:1001A0000FB6F894DEBF0FBECDBFDF91CF9108959B
:1001B00080EC80937C00089581E480937C00089516
:1001C00085E38A95F1F70000EAE7F0E0808180643A
:1001D000808380917A0086FDFCCF80917800909199
:1001E000790008950E944B000E9459000E948100EE
:1001F0000E946400813319F0823351F012C00E94D2
:10020000D8000E94E00088E791E00E946B00EECFEA
:100210000E94DC000E94E00081E891E00E946B00F7
:10022000E5CF8AE891E00E946B00E0CFF894FFCF21
:1002300053656C6563696F6E6520756D61206F70C5
:1002400063616F3A0A000000000000000000000037
:10025000000000000000000031202D204D65646981
:10026000722074656D706572617475726120284CBE
:100270004D3335290A000000000000000000000096
:1002800032202D204D656469722074656E73E36FB2
:100290002028506F74656E6369F46D6574726F2900
:1002A0000A000000000000006F7063616F20310AD7
:1002B000006F7063616F20320A006F7063616F209E
:0A02C000696E76616C6964610A00E2
:00000001FF
